{
  "contractName": "MetaCoin",
  "abi": [
    {
      "inputs": [],
      "payable": false,
      "stateMutability": "nonpayable",
      "type": "constructor"
    },
    {
      "anonymous": false,
      "inputs": [
        {
          "indexed": true,
          "name": "_from",
          "type": "address"
        },
        {
          "indexed": true,
          "name": "_to",
          "type": "address"
        },
        {
          "indexed": false,
          "name": "_value",
          "type": "uint256"
        }
      ],
      "name": "Transfer",
      "type": "event"
    },
    {
      "constant": false,
      "inputs": [
        {
          "name": "receiver",
          "type": "address"
        },
        {
          "name": "amount",
          "type": "uint256"
        },
        {
          "name": "name",
          "type": "string"
        },
        {
          "name": "id",
          "type": "string"
        }
      ],
      "name": "sendCoin",
      "outputs": [
        {
          "name": "sufficient",
          "type": "bool"
        }
      ],
      "payable": false,
      "stateMutability": "nonpayable",
      "type": "function"
    },
    {
      "constant": false,
      "inputs": [
        {
          "name": "receiver",
          "type": "address"
        }
      ],
      "name": "getInfoPrevious",
      "outputs": [
        {
          "name": "",
          "type": "string"
        },
        {
          "name": "",
          "type": "uint256"
        },
        {
          "name": "",
          "type": "string"
        }
      ],
      "payable": false,
      "stateMutability": "nonpayable",
      "type": "function"
    },
    {
      "constant": false,
      "inputs": [
        {
          "name": "id",
          "type": "string"
        }
      ],
      "name": "getTransactionByID",
      "outputs": [
        {
          "name": "",
          "type": "uint256"
        },
        {
          "name": "",
          "type": "string"
        },
        {
          "name": "",
          "type": "address"
        }
      ],
      "payable": false,
      "stateMutability": "nonpayable",
      "type": "function"
    },
    {
      "constant": false,
      "inputs": [],
      "name": "GetTrailCount",
      "outputs": [
        {
          "name": "",
          "type": "uint8"
        }
      ],
      "payable": false,
      "stateMutability": "nonpayable",
      "type": "function"
    },
    {
      "constant": false,
      "inputs": [
        {
          "name": "TrailNo",
          "type": "uint8"
        }
      ],
      "name": "GetLocation",
      "outputs": [
        {
          "name": "",
          "type": "string"
        },
        {
          "name": "",
          "type": "uint256"
        },
        {
          "name": "",
          "type": "address"
        }
      ],
      "payable": false,
      "stateMutability": "nonpayable",
      "type": "function"
    },
    {
      "constant": true,
      "inputs": [
        {
          "name": "addr",
          "type": "address"
        }
      ],
      "name": "getBalanceInEth",
      "outputs": [
        {
          "name": "",
          "type": "uint256"
        }
      ],
      "payable": false,
      "stateMutability": "view",
      "type": "function"
    },
    {
      "constant": true,
      "inputs": [
        {
          "name": "addr",
          "type": "address"
        }
      ],
      "name": "getBalance",
      "outputs": [
        {
          "name": "",
          "type": "uint256"
        }
      ],
      "payable": false,
      "stateMutability": "view",
      "type": "function"
    },
    {
      "constant": true,
      "inputs": [],
      "name": "getaddress",
      "outputs": [
        {
          "name": "",
          "type": "address"
        }
      ],
      "payable": false,
      "stateMutability": "view",
      "type": "function"
    }
  ],
  "bytecode": "0x60806040526000600360006101000a81548160ff021916908360ff16021790555034801561002c57600080fd5b50612710600460003273ffffffffffffffffffffffffffffffffffffffff1673ffffffffffffffffffffffffffffffffffffffff16815260200190815260200160002081905550611559806100826000396000f30060806040526004361061008e576000357c0100000000000000000000000000000000000000000000000000000000900463ffffffff168063252bd4d3146100935780633e5d88d6146100ea57806370a9db31146102195780637bd703e81461033557806389890cf51461038c578063bbe42af81461047d578063e3fd1ec2146104ae578063f8b2cb4f14610591575b600080fd5b34801561009f57600080fd5b506100a86105e8565b604051808273ffffffffffffffffffffffffffffffffffffffff1673ffffffffffffffffffffffffffffffffffffffff16815260200191505060405180910390f35b3480156100f657600080fd5b5061012b600480360381019080803573ffffffffffffffffffffffffffffffffffffffff1690602001909291905050506105f0565b604051808060200184815260200180602001838103835286818151815260200191508051906020019080838360005b8381101561017557808201518184015260208101905061015a565b50505050905090810190601f1680156101a25780820380516001836020036101000a031916815260200191505b50838103825284818151815260200191508051906020019080838360005b838110156101db5780820151818401526020810190506101c0565b50505050905090810190601f1680156102085780820380516001836020036101000a031916815260200191505b509550505050505060405180910390f35b34801561022557600080fd5b50610280600480360381019080803590602001908201803590602001908080601f016020809104026020016040519081016040528093929190818152602001838380828437820191505050505050919291929050505061096c565b60405180848152602001806020018373ffffffffffffffffffffffffffffffffffffffff1673ffffffffffffffffffffffffffffffffffffffff168152602001828103825284818151815260200191508051906020019080838360005b838110156102f85780820151818401526020810190506102dd565b50505050905090810190601f1680156103255780820380516001836020036101000a031916815260200191505b5094505050505060405180910390f35b34801561034157600080fd5b50610376600480360381019080803573ffffffffffffffffffffffffffffffffffffffff169060200190929190505050610b87565b6040518082815260200191505060405180910390f35b34801561039857600080fd5b50610463600480360381019080803573ffffffffffffffffffffffffffffffffffffffff16906020019092919080359060200190929190803590602001908201803590602001908080601f0160208091040260200160405190810160405280939291908181526020018383808284378201915050505050509192919290803590602001908201803590602001908080601f0160208091040260200160405190810160405280939291908181526020018383808284378201915050505050509192919290505050610c47565b604051808215151515815260200191505060405180910390f35b34801561048957600080fd5b506104926111aa565b604051808260ff1660ff16815260200191505060405180910390f35b3480156104ba57600080fd5b506104dc600480360381019080803560ff1690602001909291905050506111c1565b60405180806020018481526020018373ffffffffffffffffffffffffffffffffffffffff1673ffffffffffffffffffffffffffffffffffffffff168152602001828103825285818151815260200191508051906020019080838360005b83811015610554578082015181840152602081019050610539565b50505050905090810190601f1680156105815780820380516001836020036101000a031916815260200191505b5094505050505060405180910390f35b34801561059d57600080fd5b506105d2600480360381019080803573ffffffffffffffffffffffffffffffffffffffff1690602001909291905050506112dc565b6040518082815260200191505060405180910390f35b600033905090565b60606000606060008060008673ffffffffffffffffffffffffffffffffffffffff1673ffffffffffffffffffffffffffffffffffffffff1681526020019081526020016000209050600081805460018160011615610100020316600290049050141561073b576000816040805190810160405280600481526020017f4e756c6c000000000000000000000000000000000000000000000000000000008152509190819150808054600181600116156101000203166002900480601f0160208091040260200160405190810160405280929190818152602001828054600181600116156101000203166002900480156107295780601f106106fe57610100808354040283529160200191610729565b820191906000526020600020905b81548152906001019060200180831161070c57829003601f168201915b50505050509050935093509350610964565b60018160405180828054600181600116156101000203166002900480156107995780601f10610777576101008083540402835291820191610799565b820191906000526020600020905b815481529060010190602001808311610785575b50509150509081526020016040518091039020600001600182604051808280546001816001161561010002031660029004801561080d5780601f106107eb57610100808354040283529182019161080d565b820191906000526020600020905b8154815290600101906020018083116107f9575b505091505090815260200160405180910390206004015482828054600181600116156101000203166002900480601f0160208091040260200160405190810160405280929190818152602001828054600181600116156101000203166002900480156108ba5780601f1061088f576101008083540402835291602001916108ba565b820191906000526020600020905b81548152906001019060200180831161089d57829003601f168201915b50505050509250808054600181600116156101000203166002900480601f0160208091040260200160405190810160405280929190818152602001828054600181600116156101000203166002900480156109565780601f1061092b57610100808354040283529160200191610956565b820191906000526020600020905b81548152906001019060200180831161093957829003601f168201915b505050505090509350935093505b509193909250565b6000606060006001846040518082805190602001908083835b6020831015156109aa5780518252602082019150602081019050602083039250610985565b6001836020036101000a0380198251168184511680821785525050505050509050019150509081526020016040518091039020600401546001856040518082805190602001908083835b602083101515610a1957805182526020820191506020810190506020830392506109f4565b6001836020036101000a03801982511681845116808217855250505050505090500191505090815260200160405180910390206000016001866040518082805190602001908083835b602083101515610a875780518252602082019150602081019050602083039250610a62565b6001836020036101000a038019825116818451168082178552505050505050905001915050908152602001604051809103902060010160009054906101000a900473ffffffffffffffffffffffffffffffffffffffff16818054600181600116156101000203166002900480601f016020809104026020016040519081016040528092919081815260200182805460018160011615610100020316600290048015610b735780601f10610b4857610100808354040283529160200191610b73565b820191906000526020600020905b815481529060010190602001808311610b5657829003601f168201915b505050505091509250925092509193909250565b600073__ConvertLib____________________________6396e4ee3d610bac846112dc565b60026040518363ffffffff167c0100000000000000000000000000000000000000000000000000000000028152600401808381526020018281526020019250505060206040518083038186803b158015610c0557600080fd5b505af4158015610c19573d6000803e3d6000fd5b505050506040513d6020811015610c2f57600080fd5b81019080805190602001909291905050509050919050565b6000610c51611325565b85816020019073ffffffffffffffffffffffffffffffffffffffff16908173ffffffffffffffffffffffffffffffffffffffff16815250504281606001818152505083816000018190525084816080018181525050826000808873ffffffffffffffffffffffffffffffffffffffff1673ffffffffffffffffffffffffffffffffffffffff1681526020019081526020016000209080519060200190610cf8929190611381565b506000600360009054906101000a900460ff1660ff16141515610d965760026000600360009054906101000a900460ff1660ff16815260200190815260200160002060010160009054906101000a900473ffffffffffffffffffffffffffffffffffffffff16816040019073ffffffffffffffffffffffffffffffffffffffff16908173ffffffffffffffffffffffffffffffffffffffff16815250505b8060026000600360009054906101000a900460ff1660ff1681526020019081526020016000206000820151816000019080519060200190610dd8929190611401565b5060208201518160010160006101000a81548173ffffffffffffffffffffffffffffffffffffffff021916908373ffffffffffffffffffffffffffffffffffffffff16021790555060408201518160020160006101000a81548173ffffffffffffffffffffffffffffffffffffffff021916908373ffffffffffffffffffffffffffffffffffffffff160217905550606082015181600301556080820151816004015590505060026000600360009054906101000a900460ff1660ff1681526020019081526020016000206001846040518082805190602001908083835b602083101515610edb5780518252602082019150602081019050602083039250610eb6565b6001836020036101000a038019825116818451168082178552505050505050905001915050908152602001604051809103902060008201816000019080546001816001161561010002031660029004610f35929190611481565b506001820160009054906101000a900473ffffffffffffffffffffffffffffffffffffffff168160010160006101000a81548173ffffffffffffffffffffffffffffffffffffffff021916908373ffffffffffffffffffffffffffffffffffffffff1602179055506002820160009054906101000a900473ffffffffffffffffffffffffffffffffffffffff168160020160006101000a81548173ffffffffffffffffffffffffffffffffffffffff021916908373ffffffffffffffffffffffffffffffffffffffff16021790555060038201548160030155600482015481600401559050506003600081819054906101000a900460ff168092919060010191906101000a81548160ff021916908360ff1602179055505084600460003373ffffffffffffffffffffffffffffffffffffffff1673ffffffffffffffffffffffffffffffffffffffff16815260200190815260200160002054101561109d57600091506111a1565b84600460003373ffffffffffffffffffffffffffffffffffffffff1673ffffffffffffffffffffffffffffffffffffffff1681526020019081526020016000206000828254039250508190555084600460008873ffffffffffffffffffffffffffffffffffffffff1673ffffffffffffffffffffffffffffffffffffffff168152602001908152602001600020600082825401925050819055508573ffffffffffffffffffffffffffffffffffffffff163373ffffffffffffffffffffffffffffffffffffffff167fddf252ad1be2c89b69c2b068fc378daa952ba7f163c4a11628f55a4df523b3ef876040518082815260200191505060405180910390a3600191505b50949350505050565b6000600360009054906101000a900460ff16905090565b6060600080600260008560ff168152602001908152602001600020600001600260008660ff16815260200190815260200160002060040154600260008760ff16815260200190815260200160002060010160009054906101000a900473ffffffffffffffffffffffffffffffffffffffff16828054600181600116156101000203166002900480601f0160208091040260200160405190810160405280929190818152602001828054600181600116156101000203166002900480156112c85780601f1061129d576101008083540402835291602001916112c8565b820191906000526020600020905b8154815290600101906020018083116112ab57829003601f168201915b505050505092509250925092509193909250565b6000600460008373ffffffffffffffffffffffffffffffffffffffff1673ffffffffffffffffffffffffffffffffffffffff168152602001908152602001600020549050919050565b60a06040519081016040528060608152602001600073ffffffffffffffffffffffffffffffffffffffff168152602001600073ffffffffffffffffffffffffffffffffffffffff16815260200160008152602001600081525090565b828054600181600116156101000203166002900490600052602060002090601f016020900481019282601f106113c257805160ff19168380011785556113f0565b828001600101855582156113f0579182015b828111156113ef5782518255916020019190600101906113d4565b5b5090506113fd9190611508565b5090565b828054600181600116156101000203166002900490600052602060002090601f016020900481019282601f1061144257805160ff1916838001178555611470565b82800160010185558215611470579182015b8281111561146f578251825591602001919060010190611454565b5b50905061147d9190611508565b5090565b828054600181600116156101000203166002900490600052602060002090601f016020900481019282601f106114ba57805485556114f7565b828001600101855582156114f757600052602060002091601f016020900482015b828111156114f65782548255916001019190600101906114db565b5b5090506115049190611508565b5090565b61152a91905b8082111561152657600081600090555060010161150e565b5090565b905600a165627a7a72305820f8a47e1312f491b6576f7bcb72974de474cfd2bd72c4cdd6e4c5938d8b1559fe0029",
  "source": "pragma solidity ^0.4.24;\r\n\r\nimport \"./ConvertLib.sol\";\r\n\r\n// This is just a simple example of a coin-like contract.\r\n// It is not standards compatible and cannot be expected to talk to other\r\n// coin/token contracts. If you want to create a standards-compliant\r\n// token, see: https://github.com/ConsenSys/Tokens. Cheers!\r\n\r\ncontract MetaCoin {\r\n\tstruct Location{\r\n\t\tstring name;\r\n        address Receiver;\r\n\t\taddress PreviousLocationId;\r\n        uint Timestamp;\r\n\t\tuint amount;\r\n\t\t \r\n    }\r\n\tmapping(address=>string) getID;\r\n\tmapping(string=>Location) ID;\r\n    mapping(uint=>Location) Trail;\r\n\tuint8 TrailCount=0;\r\n    mapping (address => uint) balances;\r\n\r\n\tevent Transfer(address indexed _from, address indexed _to, uint256 _value);\r\n\r\n\tconstructor() public {\r\n\t\tbalances[tx.origin] = 10000;\r\n\t}\r\n\r\n\r\n\tfunction sendCoin(address receiver, uint amount,string name,string id) public returns(bool sufficient) {\r\n\t\tLocation memory newLocation;\r\n        newLocation.Receiver = receiver;\r\n        newLocation.Timestamp = now;\r\n\t\tnewLocation.name = name;\r\n\t\tnewLocation.amount = amount;\r\n\t\tgetID[receiver] = id;\r\n        if(TrailCount!=0)\r\n        {\r\n            newLocation.PreviousLocationId= Trail[TrailCount].Receiver;\r\n        }\r\n        Trail[TrailCount] = newLocation;\r\n\t\tID[id] = Trail[TrailCount];\r\n        TrailCount++;\r\n\t\tif (balances[msg.sender] < amount) return false;\r\n\t\tbalances[msg.sender] -= amount;\r\n\t\tbalances[receiver] += amount;\r\n\t\temit Transfer(msg.sender, receiver, amount);\r\n\t\treturn true;\r\n\t}\r\n\tfunction getInfoPrevious(address receiver) public returns(string,uint,string){\r\n\t\tstring id = getID[receiver];\r\n\t\tif (bytes(id).length == 0){\r\n\t\t\treturn (\"Null\",0,id);\r\n\t\t}\r\n\t\treturn (ID[id].name,ID[id].amount,id);\r\n\t}\r\n\tfunction getTransactionByID(string id) public returns(uint,string,address) {\r\n\t\t\r\n\t\treturn (ID[id].amount,ID[id].name,ID[id].Receiver);\r\n\t}\r\n\r\n \tfunction GetTrailCount() public returns(uint8){\r\n        return MetaCoin.TrailCount;\r\n    }\r\n    function GetLocation(uint8 TrailNo) public returns (string,uint,address)\r\n    {\r\n        return (Trail[TrailNo].name,Trail[TrailNo].amount,Trail[TrailNo].Receiver);\r\n    }\r\n\tfunction getBalanceInEth(address addr) public view returns(uint){\r\n\t\treturn ConvertLib.convert(getBalance(addr),2);\r\n\t}\r\n\r\n\tfunction getBalance(address addr) public view returns(uint) {\r\n\t\treturn balances[addr];\r\n\t}\r\n\tfunction getaddress() public view returns(address) {\r\n\t\treturn msg.sender;\r\n\t}\r\n\t\r\n}\r\n",
  "sourcePath": "C:\\Users\\Ishan\\Desktop\\demo\\helloworld\\Webpack\\contracts\\MetaCoin.sol",
  "compiler": {
    "name": "solc",
    "version": "0.4.24+commit.e67f0147.Emscripten.clang"
  },
  "schemaVersion": "2.0.1",
  "updatedAt": "2018-11-24T23:46:38.824Z"
}