{
  "contractName": "MetaCoin",
  "abi": [
    {
      "inputs": [],
      "payable": false,
      "stateMutability": "nonpayable",
      "type": "constructor"
    },
    {
      "anonymous": false,
      "inputs": [
        {
          "indexed": true,
          "name": "_from",
          "type": "address"
        },
        {
          "indexed": true,
          "name": "_to",
          "type": "address"
        },
        {
          "indexed": false,
          "name": "_value",
          "type": "uint256"
        }
      ],
      "name": "Transfer",
      "type": "event"
    },
    {
      "constant": false,
      "inputs": [
        {
          "name": "receiver",
          "type": "address"
        },
        {
          "name": "amount",
          "type": "uint256"
        },
        {
          "name": "name",
          "type": "string"
        },
        {
          "name": "id",
          "type": "string"
        }
      ],
      "name": "sendCoin",
      "outputs": [
        {
          "name": "sufficient",
          "type": "bool"
        }
      ],
      "payable": false,
      "stateMutability": "nonpayable",
      "type": "function"
    },
    {
      "constant": false,
      "inputs": [
        {
          "name": "receiver",
          "type": "address"
        }
      ],
      "name": "getInfoPrevious",
      "outputs": [
        {
          "name": "",
          "type": "address"
        },
        {
          "name": "",
          "type": "uint256"
        },
        {
          "name": "",
          "type": "string"
        }
      ],
      "payable": false,
      "stateMutability": "nonpayable",
      "type": "function"
    },
    {
      "constant": false,
      "inputs": [],
      "name": "GetTrailCount",
      "outputs": [
        {
          "name": "",
          "type": "uint8"
        }
      ],
      "payable": false,
      "stateMutability": "nonpayable",
      "type": "function"
    },
    {
      "constant": false,
      "inputs": [
        {
          "name": "TrailNo",
          "type": "uint8"
        }
      ],
      "name": "GetLocation",
      "outputs": [
        {
          "name": "",
          "type": "string"
        },
        {
          "name": "",
          "type": "uint256"
        },
        {
          "name": "",
          "type": "address"
        }
      ],
      "payable": false,
      "stateMutability": "nonpayable",
      "type": "function"
    },
    {
      "constant": true,
      "inputs": [
        {
          "name": "addr",
          "type": "address"
        }
      ],
      "name": "getBalanceInEth",
      "outputs": [
        {
          "name": "",
          "type": "uint256"
        }
      ],
      "payable": false,
      "stateMutability": "view",
      "type": "function"
    },
    {
      "constant": true,
      "inputs": [
        {
          "name": "addr",
          "type": "address"
        }
      ],
      "name": "getBalance",
      "outputs": [
        {
          "name": "",
          "type": "uint256"
        }
      ],
      "payable": false,
      "stateMutability": "view",
      "type": "function"
    },
    {
      "constant": true,
      "inputs": [],
      "name": "getaddress",
      "outputs": [
        {
          "name": "",
          "type": "address"
        }
      ],
      "payable": false,
      "stateMutability": "view",
      "type": "function"
    }
  ],
  "bytecode": "0x60806040526000600360006101000a81548160ff021916908360ff16021790555034801561002c57600080fd5b50612710600460003273ffffffffffffffffffffffffffffffffffffffff1673ffffffffffffffffffffffffffffffffffffffff1681526020019081526020016000208190555061112b806100826000396000f300608060405260043610610083576000357c0100000000000000000000000000000000000000000000000000000000900463ffffffff168063252bd4d3146100885780633e5d88d6146100df5780637bd703e8146101d557806389890cf51461022c578063bbe42af81461031d578063e3fd1ec21461034e578063f8b2cb4f14610431575b600080fd5b34801561009457600080fd5b5061009d610488565b604051808273ffffffffffffffffffffffffffffffffffffffff1673ffffffffffffffffffffffffffffffffffffffff16815260200191505060405180910390f35b3480156100eb57600080fd5b50610120600480360381019080803573ffffffffffffffffffffffffffffffffffffffff169060200190929190505050610490565b604051808473ffffffffffffffffffffffffffffffffffffffff1673ffffffffffffffffffffffffffffffffffffffff16815260200183815260200180602001828103825283818151815260200191508051906020019080838360005b8381101561019857808201518184015260208101905061017d565b50505050905090810190601f1680156101c55780820380516001836020036101000a031916815260200191505b5094505050505060405180910390f35b3480156101e157600080fd5b50610216600480360381019080803573ffffffffffffffffffffffffffffffffffffffff169060200190929190505050610759565b6040518082815260200191505060405180910390f35b34801561023857600080fd5b50610303600480360381019080803573ffffffffffffffffffffffffffffffffffffffff16906020019092919080359060200190929190803590602001908201803590602001908080601f0160208091040260200160405190810160405280939291908181526020018383808284378201915050505050509192919290803590602001908201803590602001908080601f0160208091040260200160405190810160405280939291908181526020018383808284378201915050505050509192919290505050610819565b604051808215151515815260200191505060405180910390f35b34801561032957600080fd5b50610332610d7c565b604051808260ff1660ff16815260200191505060405180910390f35b34801561035a57600080fd5b5061037c600480360381019080803560ff169060200190929190505050610d93565b60405180806020018481526020018373ffffffffffffffffffffffffffffffffffffffff1673ffffffffffffffffffffffffffffffffffffffff168152602001828103825285818151815260200191508051906020019080838360005b838110156103f45780820151818401526020810190506103d9565b50505050905090810190601f1680156104215780820380516001836020036101000a031916815260200191505b5094505050505060405180910390f35b34801561043d57600080fd5b50610472600480360381019080803573ffffffffffffffffffffffffffffffffffffffff169060200190929190505050610eae565b6040518082815260200191505060405180910390f35b600033905090565b600080606060008060008673ffffffffffffffffffffffffffffffffffffffff1673ffffffffffffffffffffffffffffffffffffffff168152602001908152602001600020905060008180546001816001161561010002031660029004905014156105a35784600082819150808054600181600116156101000203166002900480601f0160208091040260200160405190810160405280929190818152602001828054600181600116156101000203166002900480156105915780601f1061056657610100808354040283529160200191610591565b820191906000526020600020905b81548152906001019060200180831161057457829003601f168201915b50505050509050935093509350610751565b60018160405180828054600181600116156101000203166002900480156106015780601f106105df576101008083540402835291820191610601565b820191906000526020600020905b8154815290600101906020018083116105ed575b5050915050908152602001604051809103902060010160009054906101000a900473ffffffffffffffffffffffffffffffffffffffff1660018260405180828054600181600116156101000203166002900480156106965780601f10610674576101008083540402835291820191610696565b820191906000526020600020905b815481529060010190602001808311610682575b505091505090815260200160405180910390206004015482808054600181600116156101000203166002900480601f0160208091040260200160405190810160405280929190818152602001828054600181600116156101000203166002900480156107435780601f1061071857610100808354040283529160200191610743565b820191906000526020600020905b81548152906001019060200180831161072657829003601f168201915b505050505090509350935093505b509193909250565b600073__ConvertLib____________________________6396e4ee3d61077e84610eae565b60026040518363ffffffff167c0100000000000000000000000000000000000000000000000000000000028152600401808381526020018281526020019250505060206040518083038186803b1580156107d757600080fd5b505af41580156107eb573d6000803e3d6000fd5b505050506040513d602081101561080157600080fd5b81019080805190602001909291905050509050919050565b6000610823610ef7565b85816020019073ffffffffffffffffffffffffffffffffffffffff16908173ffffffffffffffffffffffffffffffffffffffff16815250504281606001818152505083816000018190525084816080018181525050826000808873ffffffffffffffffffffffffffffffffffffffff1673ffffffffffffffffffffffffffffffffffffffff16815260200190815260200160002090805190602001906108ca929190610f53565b506000600360009054906101000a900460ff1660ff161415156109685760026000600360009054906101000a900460ff1660ff16815260200190815260200160002060010160009054906101000a900473ffffffffffffffffffffffffffffffffffffffff16816040019073ffffffffffffffffffffffffffffffffffffffff16908173ffffffffffffffffffffffffffffffffffffffff16815250505b8060026000600360009054906101000a900460ff1660ff16815260200190815260200160002060008201518160000190805190602001906109aa929190610fd3565b5060208201518160010160006101000a81548173ffffffffffffffffffffffffffffffffffffffff021916908373ffffffffffffffffffffffffffffffffffffffff16021790555060408201518160020160006101000a81548173ffffffffffffffffffffffffffffffffffffffff021916908373ffffffffffffffffffffffffffffffffffffffff160217905550606082015181600301556080820151816004015590505060026000600360009054906101000a900460ff1660ff1681526020019081526020016000206001846040518082805190602001908083835b602083101515610aad5780518252602082019150602081019050602083039250610a88565b6001836020036101000a038019825116818451168082178552505050505050905001915050908152602001604051809103902060008201816000019080546001816001161561010002031660029004610b07929190611053565b506001820160009054906101000a900473ffffffffffffffffffffffffffffffffffffffff168160010160006101000a81548173ffffffffffffffffffffffffffffffffffffffff021916908373ffffffffffffffffffffffffffffffffffffffff1602179055506002820160009054906101000a900473ffffffffffffffffffffffffffffffffffffffff168160020160006101000a81548173ffffffffffffffffffffffffffffffffffffffff021916908373ffffffffffffffffffffffffffffffffffffffff16021790555060038201548160030155600482015481600401559050506003600081819054906101000a900460ff168092919060010191906101000a81548160ff021916908360ff1602179055505084600460003373ffffffffffffffffffffffffffffffffffffffff1673ffffffffffffffffffffffffffffffffffffffff168152602001908152602001600020541015610c6f5760009150610d73565b84600460003373ffffffffffffffffffffffffffffffffffffffff1673ffffffffffffffffffffffffffffffffffffffff1681526020019081526020016000206000828254039250508190555084600460008873ffffffffffffffffffffffffffffffffffffffff1673ffffffffffffffffffffffffffffffffffffffff168152602001908152602001600020600082825401925050819055508573ffffffffffffffffffffffffffffffffffffffff163373ffffffffffffffffffffffffffffffffffffffff167fddf252ad1be2c89b69c2b068fc378daa952ba7f163c4a11628f55a4df523b3ef876040518082815260200191505060405180910390a3600191505b50949350505050565b6000600360009054906101000a900460ff16905090565b6060600080600260008560ff168152602001908152602001600020600001600260008660ff16815260200190815260200160002060040154600260008760ff16815260200190815260200160002060010160009054906101000a900473ffffffffffffffffffffffffffffffffffffffff16828054600181600116156101000203166002900480601f016020809104026020016040519081016040528092919081815260200182805460018160011615610100020316600290048015610e9a5780601f10610e6f57610100808354040283529160200191610e9a565b820191906000526020600020905b815481529060010190602001808311610e7d57829003601f168201915b505050505092509250925092509193909250565b6000600460008373ffffffffffffffffffffffffffffffffffffffff1673ffffffffffffffffffffffffffffffffffffffff168152602001908152602001600020549050919050565b60a06040519081016040528060608152602001600073ffffffffffffffffffffffffffffffffffffffff168152602001600073ffffffffffffffffffffffffffffffffffffffff16815260200160008152602001600081525090565b828054600181600116156101000203166002900490600052602060002090601f016020900481019282601f10610f9457805160ff1916838001178555610fc2565b82800160010185558215610fc2579182015b82811115610fc1578251825591602001919060010190610fa6565b5b509050610fcf91906110da565b5090565b828054600181600116156101000203166002900490600052602060002090601f016020900481019282601f1061101457805160ff1916838001178555611042565b82800160010185558215611042579182015b82811115611041578251825591602001919060010190611026565b5b50905061104f91906110da565b5090565b828054600181600116156101000203166002900490600052602060002090601f016020900481019282601f1061108c57805485556110c9565b828001600101855582156110c957600052602060002091601f016020900482015b828111156110c85782548255916001019190600101906110ad565b5b5090506110d691906110da565b5090565b6110fc91905b808211156110f85760008160009055506001016110e0565b5090565b905600a165627a7a72305820803c0d60e70a6e00232b306fdf9187941722170fbffc4e5e1b7961daaf5815f40029",
  "source": "pragma solidity ^0.4.24;\r\n\r\nimport \"./ConvertLib.sol\";\r\n\r\n// This is just a simple example of a coin-like contract.\r\n// It is not standards compatible and cannot be expected to talk to other\r\n// coin/token contracts. If you want to create a standards-compliant\r\n// token, see: https://github.com/ConsenSys/Tokens. Cheers!\r\n\r\ncontract MetaCoin {\r\n\tstruct Location{\r\n\t\tstring name;\r\n        address Receiver;\r\n\t\taddress PreviousLocationId;\r\n        uint Timestamp;\r\n\t\tuint amount;\r\n\t\t \r\n    }\r\n\tmapping(address=>string) getID;\r\n\tmapping(string=>Location) ID;\r\n    mapping(uint=>Location) Trail;\r\n\tuint8 TrailCount=0;\r\n    mapping (address => uint) balances;\r\n\r\n\tevent Transfer(address indexed _from, address indexed _to, uint256 _value);\r\n\r\n\tconstructor() public {\r\n\t\tbalances[tx.origin] = 10000;\r\n\t}\r\n\r\n\r\n\tfunction sendCoin(address receiver, uint amount,string name,string id) public returns(bool sufficient) {\r\n\t\tLocation memory newLocation;\r\n        newLocation.Receiver = receiver;\r\n        newLocation.Timestamp = now;\r\n\t\tnewLocation.name = name;\r\n\t\tnewLocation.amount = amount;\r\n\t\tgetID[receiver] = id;\r\n        if(TrailCount!=0)\r\n        {\r\n            newLocation.PreviousLocationId= Trail[TrailCount].Receiver;\r\n        }\r\n        Trail[TrailCount] = newLocation;\r\n\t\tID[id] = Trail[TrailCount];\r\n        TrailCount++;\r\n\t\tif (balances[msg.sender] < amount) return false;\r\n\t\tbalances[msg.sender] -= amount;\r\n\t\tbalances[receiver] += amount;\r\n\t\temit Transfer(msg.sender, receiver, amount);\r\n\t\treturn true;\r\n\t}\r\n\tfunction getInfoPrevious(address receiver) public returns(address,uint,string){\r\n\t\tstring id = getID[receiver];\r\n\t\tif (bytes(id).length == 0){\r\n\t\t\treturn (receiver,0,id);\r\n\t\t}\r\n\t\treturn (ID[id].Receiver,ID[id].amount,id);\r\n\t}\r\n\r\n \tfunction GetTrailCount() public returns(uint8){\r\n        return MetaCoin.TrailCount;\r\n    }\r\n    function GetLocation(uint8 TrailNo) public returns (string,uint,address)\r\n    {\r\n        return (Trail[TrailNo].name,Trail[TrailNo].amount,Trail[TrailNo].Receiver);\r\n    }\r\n\tfunction getBalanceInEth(address addr) public view returns(uint){\r\n\t\treturn ConvertLib.convert(getBalance(addr),2);\r\n\t}\r\n\r\n\tfunction getBalance(address addr) public view returns(uint) {\r\n\t\treturn balances[addr];\r\n\t}\r\n\tfunction getaddress() public view returns(address) {\r\n\t\treturn msg.sender;\r\n\t}\r\n\t\r\n}\r\n",
  "sourcePath": "C:\\Users\\Ishan\\Desktop\\demo\\helloworld\\Webpack\\contracts\\MetaCoin.sol",
  "compiler": {
    "name": "solc",
    "version": "0.4.24+commit.e67f0147.Emscripten.clang"
  },
  "schemaVersion": "2.0.1",
  "updatedAt": "2018-11-24T04:05:10.463Z"
}